{
  "_format": "hh-sol-artifact-1",
  "contractName": "Users",
  "sourceName": "contracts/Users.sol",
  "abi": [
    {
      "inputs": [],
      "stateMutability": "nonpayable",
      "type": "constructor"
    },
    {
      "anonymous": false,
      "inputs": [
        {
          "indexed": false,
          "internalType": "address",
          "name": "user",
          "type": "address"
        },
        {
          "indexed": false,
          "internalType": "string",
          "name": "name",
          "type": "string"
        }
      ],
      "name": "UserAdded",
      "type": "event"
    },
    {
      "inputs": [
        {
          "internalType": "address",
          "name": "_addr",
          "type": "address"
        },
        {
          "internalType": "string",
          "name": "_name",
          "type": "string"
        }
      ],
      "name": "addUser",
      "outputs": [],
      "stateMutability": "nonpayable",
      "type": "function"
    },
    {
      "inputs": [],
      "name": "getUsers",
      "outputs": [
        {
          "components": [
            {
              "internalType": "address",
              "name": "addr",
              "type": "address"
            },
            {
              "internalType": "string",
              "name": "name",
              "type": "string"
            }
          ],
          "internalType": "struct Users.User[]",
          "name": "",
          "type": "tuple[]"
        }
      ],
      "stateMutability": "view",
      "type": "function"
    },
    {
      "inputs": [],
      "name": "owner",
      "outputs": [
        {
          "internalType": "address",
          "name": "",
          "type": "address"
        }
      ],
      "stateMutability": "view",
      "type": "function"
    },
    {
      "inputs": [
        {
          "internalType": "uint256",
          "name": "",
          "type": "uint256"
        }
      ],
      "name": "users",
      "outputs": [
        {
          "internalType": "address",
          "name": "addr",
          "type": "address"
        },
        {
          "internalType": "string",
          "name": "name",
          "type": "string"
        }
      ],
      "stateMutability": "view",
      "type": "function"
    }
  ],
  "bytecode": "0x608060405234801561001057600080fd5b50600080546001600160a01b031916331790556107c8806100326000396000f3fe608060405234801561001057600080fd5b506004361061004b5760003560e01c8062ce8e3e14610050578063365b98b21461006e5780634b68d4311461008f5780638da5cb5b146100a4575b600080fd5b6100586100cf565b6040516100659190610460565b60405180910390f35b61008161007c3660046104df565b6101d5565b6040516100659291906104f8565b6100a261009d36600461053a565b610297565b005b6000546100b7906001600160a01b031681565b6040516001600160a01b039091168152602001610065565b60606001805480602002602001604051908101604052809291908181526020016000905b828210156101cc576000848152602090819020604080518082019091526002850290910180546001600160a01b03168252600181018054929391929184019161013b9061060a565b80601f01602080910402602001604051908101604052809291908181526020018280546101679061060a565b80156101b45780601f10610189576101008083540402835291602001916101b4565b820191906000526020600020905b81548152906001019060200180831161019757829003601f168201915b505050505081525050815260200190600101906100f3565b50505050905090565b600181815481106101e557600080fd5b6000918252602090912060029091020180546001820180546001600160a01b039092169350906102149061060a565b80601f01602080910402602001604051908101604052809291908181526020018280546102409061060a565b801561028d5780601f106102625761010080835404028352916020019161028d565b820191906000526020600020905b81548152906001019060200180831161027057829003601f168201915b5050505050905082565b604080518082019091526001600160a01b0383811682526020820183815260018054808201825560009190915283517fb10e2d527612073b26eecdfd717e6a320cf44b4afac2b0732d9fcbe2b7fa0cf6600290920291820180546001600160a01b0319169190941617835590517fb10e2d527612073b26eecdfd717e6a320cf44b4afac2b0732d9fcbe2b7fa0cf7909101906103339082610694565b5050506103646040518060400160405280600b81526020016a2ab9b2b91030b23232b21d60a91b81525083836103a1565b7fa56e21173460286ea98fc3defc7671b9b8e2ff0c6acea8d6ed30b343724e23fa82826040516103959291906104f8565b60405180910390a15050565b6103e88383836040516024016103b993929190610754565b60408051601f198184030181529190526020810180516001600160e01b031663e0e9ad4f60e01b1790526103ed565b505050565b6103f6816103f9565b50565b60006a636f6e736f6c652e6c6f679050600080835160208501845afa505050565b6000815180845260005b8181101561044057602081850181015186830182015201610424565b506000602082860101526020601f19601f83011685010191505092915050565b600060208083018184528085518083526040925060408601915060408160051b87010184880160005b838110156104d157888303603f19018552815180516001600160a01b031684528701518784018790526104be8785018261041a565b9588019593505090860190600101610489565b509098975050505050505050565b6000602082840312156104f157600080fd5b5035919050565b6001600160a01b038316815260406020820181905260009061051c9083018461041a565b949350505050565b634e487b7160e01b600052604160045260246000fd5b6000806040838503121561054d57600080fd5b82356001600160a01b038116811461056457600080fd5b9150602083013567ffffffffffffffff8082111561058157600080fd5b818501915085601f83011261059557600080fd5b8135818111156105a7576105a7610524565b604051601f8201601f19908116603f011681019083821181831017156105cf576105cf610524565b816040528281528860208487010111156105e857600080fd5b8260208601602083013760006020848301015280955050505050509250929050565b600181811c9082168061061e57607f821691505b60208210810361063e57634e487b7160e01b600052602260045260246000fd5b50919050565b601f8211156103e8576000816000526020600020601f850160051c8101602086101561066d5750805b601f850160051c820191505b8181101561068c57828155600101610679565b505050505050565b815167ffffffffffffffff8111156106ae576106ae610524565b6106c2816106bc845461060a565b84610644565b602080601f8311600181146106f757600084156106df5750858301515b600019600386901b1c1916600185901b17855561068c565b600085815260208120601f198616915b8281101561072657888601518255948401946001909101908401610707565b50858210156107445787850151600019600388901b60f8161c191681555b5050505050600190811b01905550565b606081526000610767606083018661041a565b6001600160a01b03851660208401528281036040840152610788818561041a565b969550505050505056fea264697066735822122063359dbc231225a6bca4055a66adebcb17aca0c29cf6daffea3df4e5d19934bc64736f6c63430008180033",
  "linkReferences": {},
  "deployedLinkReferences": {}
}